:020000040800F2
:100000000050002065200008B5200008B520000839
:10001000B5200008B5200008B52000080000000049
:10002000000000000000000000000000B5200008F3
:10003000B520000800000000B5200008B520000829
:10004000B5200008B5200008B5200008B52000083C
:10005000B5200008B5200008F113000815140008A9
:10006000391400085D14000881140008B520000848
:10007000B5200008B5200008B5200008B52000080C
:10008000B5200008B5200008B5200008B5200008FC
:10009000B5200008B5200008B5200008A514000808
:1000A000B5200008B5200008B5200008B5200008DC
:1000B000391E0008E11E00087D1F0008B520000859
:1000C000B5200008B5200008B5200008F117000889
:1000D00049180008192000082D20000841200008B8
:1000E00055150008B520000800000000B5200008E4
:1000F000B5200008B5200008B5200008B52000088C
:10010000B5200008B5200008B5200008B52000087B
:10011000B5200008B5200008B5200008B52000086B
:10012000B5200008B5200008B5200008B52000085B
:1001300010B5054C237833B9044B13B10448AFF321
:1001400000800123237010BD080000200000000083
:100150000021000808B5034B1BB103490348AFF366
:10016000008008BD000000000C00002000210008F5
:1001700081F0004102E000BF83F0004330B54FEA58
:1001800041044FEA430594EA050F08BF90EA020FC5
:100190001FBF54EA000C55EA020C7FEA645C7FEA58
:1001A000655C00F0E2804FEA5454D4EB5555B8BF7B
:1001B0006D420CDD2C4480EA020281EA030382EAEC
:1001C000000083EA010180EA020281EA0303362D7E
:1001D00088BF30BD11F0004F4FEA01314FF4801C51
:1001E0004CEA113102D0404261EB410113F0004F63
:1001F0004FEA03334CEA133302D0524263EB43031A
:1002000094EA050F00F0A780A4F10104D5F1200EB7
:100210000DDB02FA0EFC22FA05F2801841F1000112
:1002200003FA0EF2801843FA05F359410EE0A5F1E6
:1002300020050EF1200E012A03FA0EFC28BF4CF017
:10024000020C43FA05F3C01851EBE37101F00045CD
:1002500007D54FF0000EDCF1000C7EEB00006EEBDA
:100260000101B1F5801F1BD3B1F5001F0CD3490864
:100270005FEA30004FEA3C0C04F101044FEA4452BB
:1002800012F5800F80F09A80BCF1004F08BF5FEA42
:10029000500C50F1000041EB045141EA050130BD22
:1002A0005FEA4C0C404141EB0101013C28BFB1F534
:1002B000801FE9D291F0000F04BF01460020B1FA7F
:1002C00081F308BF2033A3F10B03B3F120020CDA52
:1002D0000C3208DD02F1140CC2F10C0201FA0CF030
:1002E00021FA02F10CE002F11402D8BFC2F1200C95
:1002F00001FA02F120FA0CFCDCBF41EA0C0190404B
:10030000E41AA2BF01EB0451294330BD6FEA040493
:100310001F3C1CDA0C340EDC04F11404C4F120027E
:1003200020FA04F001FA02F340EA030021FA04F390
:1003300045EA030130BDC4F10C04C4F1200220FAE7
:1003400002F001FA04F340EA0300294630BD21FA25
:1003500004F0294630BD94F0000F83F4801306BFEB
:1003600081F480110134013D4EE77FEA645C18BFDF
:100370007FEA655C29D094EA050F08BF90EA020F76
:1003800005D054EA000C04BF1946104630BD91EA6E
:10039000030F1EBF0021002030BD5FEA545C05D171
:1003A0004000494128BF41F0004130BD14F58004B0
:1003B0003CBF01F5801130BD01F0004545F0FE4124
:1003C00041F470014FF0000030BD7FEA645C1ABF59
:1003D000194610467FEA655C1CBF0B46024650EA90
:1003E000013406BF52EA033591EA030F41F40021BC
:1003F00030BD00BF90F0000F04BF0021704730B542
:100400004FF4806404F132044FF000054FF0000116
:1004100050E700BF90F0000F04BF0021704730B5D7
:100420004FF4806404F1320410F0004548BF4042AC
:100430004FF000013EE700BF42004FEAE2014FEA01
:1004400031014FEA02701FBF12F07F4393F07F4FDC
:1004500081F06051704732F07F4208BF704793F0DF
:100460007F4F04BF41F40021704730B54FF46074F2
:1004700001F0004521F000411CE700BF50EA0102F5
:1004800008BF704730B54FF000050AE050EA01029E
:1004900008BF704730B511F0004502D5404261EB0E
:1004A00041014FF4806404F132045FEA915C3FF44F
:1004B000D8AE4FF003025FEADC0C18BF03325FEAEC
:1004C000DC0C18BF033202EBDC02C2F1200300FA9D
:1004D00003FC20FA02F001FA03FE40EA0E0021FAC2
:1004E00002F11444BDE600BF70B54FF0FF0C4CF4B0
:1004F000E06C1CEA11541DBF1CEA135594EA0C0F62
:1005000095EA0C0F00F0DEF82C4481EA030621EA9C
:100510004C5123EA4C5350EA013518BF52EA0335D7
:1005200041F4801143F4801338D0A0FB02CE4FF089
:100530000005E1FB02E506F00042E0FB03E54FF0B9
:100540000006E1FB03569CF0000F18BF4EF0010EB1
:10055000A4F1FF04B6F5007F64F5407404D25FEAAD
:100560004E0E6D4146EB060642EAC62141EA555160
:100570004FEAC52040EA5E504FEACE2EB4F1FD0CA2
:1005800088BFBCF5E06F1ED8BEF1004F08BF5FEA20
:10059000500E50F1000041EB045170BD06F00046D2
:1005A00046EA010140EA020081EA0301B4EB5C047F
:1005B000C2BFD4EB0C0541EA045170BD41F4801177
:1005C0004FF0000E013C00F3AB8014F1360FDEBF9C
:1005D000002001F0004170BDC4F10004203C35DA78
:1005E0000C341BDC04F11404C4F1200500FA05F3FB
:1005F00020FA04F001FA05F240EA020001F000429C
:1006000021F0004110EBD37021FA04F642EB060111
:100610005EEA430E08BF20EAD37070BDC4F10C043B
:10062000C4F1200500FA04F320FA05F001FA04F2FF
:1006300040EA020001F0004110EBD37041F10001EB
:100640005EEA430E08BF20EAD37070BDC4F12005F6
:1006500000FA05F24EEA020E20FA04F301FA05F25E
:1006600043EA020321FA04F001F0004121FA04F206
:1006700020EA020000EBD3705EEA430E08BF20EAD6
:10068000D37070BD94F0000F0FD101F00046400010
:1006900041EB010111F4801F08BF013CF7D041EA92
:1006A000060195F0000F18BF704703F00046520096
:1006B00043EB030313F4801F08BF013DF7D043EA67
:1006C0000603704794EA0C0F0CEA135518BF95EA1D
:1006D0000C0F0CD050EA410618BF52EA4306D1D1A4
:1006E00081EA030101F000414FF0000070BD50EAC3
:1006F000410606BF1046194652EA430619D094EA4D
:100700000C0F02D150EA013613D195EA0C0F05D136
:1007100052EA03361CBF104619460AD181EA03018A
:1007200001F0004141F0FE4141F470014FF0000042
:1007300070BD41F0FE4141F4780170BD70B54FF0DD
:10074000FF0C4CF4E06C1CEA11541DBF1CEA13555D
:1007500094EA0C0F95EA0C0F00F0A7F8A4EB05043F
:1007600081EA030E52EA03354FEA013100F0888036
:100770004FEA03334FF0805545EA131343EA1263FF
:100780004FEA022245EA111545EA10654FEA0026B4
:100790000EF000419D4208BF964244F1FD0404F56D
:1007A000407402D25B084FEA3202B61A65EB0305C9
:1007B0005B084FEA32024FF480104FF4002CB6EB86
:1007C000020E75EB030E22BFB61A754640EA0C0006
:1007D0005B084FEA3202B6EB020E75EB030E22BF46
:1007E000B61A754640EA5C005B084FEA3202B6EB87
:1007F000020E75EB030E22BFB61A754640EA9C0046
:100800005B084FEA3202B6EB020E75EB030E22BF15
:10081000B61A754640EADC0055EA060E18D04FEAD3
:10082000051545EA16754FEA06164FEAC30343EA73
:1008300052734FEAC2025FEA1C1CC0D111F4801F40
:100840000BD141EA00014FF000004FF0004CB6E739
:1008500011F4801F04BF01430020B4F1FD0C88BFD8
:10086000BCF5E06F3FF6AFAEB5EB030C04BFB6EBE3
:10087000020C5FEA500C50F1000041EB045170BDD6
:100880000EF0004E4EEA113114EB5C04C2BFD4EB03
:100890000C0541EA045170BD41F480114FF0000E87
:1008A000013C90E645EA060E8DE60CEA135594EA03
:1008B0000C0F08BF95EA0C0F3FF43BAF94EA0C0F06
:1008C0000AD150EA01347FF434AF95EA0C0F7FF47B
:1008D00025AF104619462CE795EA0C0F06D152EACF
:1008E00003353FF4FDAE1046194622E750EA4106B3
:1008F00018BF52EA43067FF4C5AE50EA41047FF4C4
:100900000DAF52EA43057FF4EBAE12E74A0011D275
:1009100012F5001211D20DD56FF47873B3EB625259
:100920000ED44FEAC12343F0004343EA505323FA65
:1009300002F070474FF00000704750EA013002D1DA
:100940004FF0FF3070474FF00000704780B500AFA8
:100950000F4B00221A800E4B0E4A5A600C4B0F228E
:100960001A810B4B0C4ADA60012000F0C3FB0848E7
:1009700000F066FC00F0CEF8012000F03DF90748D9
:1009800000F0E6FA4FF4FA7001F03EFA00BF80BDC5
:100990002400002000080140001001401821000838
:1009A00080B584B000AF03460A46FB711346BB71A5
:1009B000FA79BB799A4213D2FB79FB730AE0FB7B8D
:1009C000184600F001FC1E2001F01EFAFB7B0533E7
:1009D000DBB2FB7397F90F20BB799A42EFDD12E08F
:1009E000FB79BB730AE0BB7B184600F0EDFB1E20D1
:1009F00001F00AFABB7B053BDBB2BB7397F90E2013
:100A0000BB799A42EFDA00BF1037BD4680BD0000C7
:100A100080B500AF374800F077FC02460B46104621
:100A20001946FFF773FF03469AB2334B1A80012031
:100A300000F0E2F8314800F08BFA2F4B1B889BB294
:100A4000184600F0A1FA2E4800F082FAC02000F00B
:100A5000D3F8294B1B889BB20E2B0FD8294B1B7840
:100A6000DBB2002B0AD15A210020FFF799FF254B5A
:100A700001221A70244800F06BFA35E01E4B1B88E7
:100A80009BB20E2B0BD81F4B1B78DBB2012B06D170
:100A90005A2000F099FB1D4800F05AFA24E0164B4A
:100AA0001B889BB2122B0FD9164B1B78DBB2012B84
:100AB0000AD100215A20FFF773FF124B00221A704F
:100AC000134800F045FA0FE00B4B1B889BB2122B2A
:100AD0000AD90C4B1B78DBB2002B05D1002000F0AB
:100AE00073FB0B4800F034FAC82001F08DF900BF09
:100AF00080BD00BF2400002036000020282100080F
:100B00003421000834000020382100084421000866
:100B10005021000880B586B000AF2F4B1B687B6169
:100B20002E4B1B683B612E4B1B68FB602D4B1B68DB
:100B3000BB602D4B1B687B602C4B1B683B6007F137
:100B4000140319462A4800F06DFD07F110031946F9
:100B5000274800F067FD07F10C031946244800F010
:100B600061FD07F108031946214800F05BFD3B1DBC
:100B70001946204800F056FD3B4619461D4800F036
:100B800051FD032000F038F8042000F017FE032088
:100B900000F032F8042000F011FE032000F02CF8E1
:100BA000042000F00BFE022000F026F8282000F0C0
:100BB00023F8082000F020F8012000F01DF806209E
:100BC00000F01AF8012000F017F80C2000F014F8DB
:100BD00000BF1837BD4680BD5C21000860210008B9
:100BE00064210008682100086C21000870210008B9
:100BF000000C01400008014080B582B000AF034600
:100C0000FB71664BDB68654A23F40063D360FB79B4
:100C1000DB09DBB203F00103002B06D1604BDB687C
:100C20005F4A23F48053D36005E05D4BDB685C4A88
:100C300043F48053D360FB799B09DBB203F00103DB
:100C4000002B06D1564BDB68554A23F40053D36082
:100C500005E0534BDB68524A43F40053D360FB7901
:100C60005B09DBB203F00103002B06D14C4BDB68C0
:100C70004B4A23F48043D36005E0494BDB68484A84
:100C800043F48043D360FB791B09DBB203F001031B
:100C9000002B06D1424BDB68414A23F40043D3606A
:100CA00005E03F4BDB683E4A43F40043D3603B4BD7
:100CB000DB683A4A43F48073D360012000F07EFD84
:100CC000364BDB68354A23F48073D360012000F093
:100CD00075FDFB79DB08DBB203F00103002B06D1C5
:100CE0002F4BDB682E4A23F48053D36005E02C4B56
:100CF000DB682B4A43F48053D360FB799B08DBB25B
:100D000003F00103002B06D1254BDB68244A23F4B2
:100D10000053D36005E0224BDB68214A43F40053C3
:100D2000D360FB795B08DBB203F00103002B06D133
:100D30001B4BDB681A4A23F48043D36005E0184B51
:100D4000DB68174A43F48043D360FB7903F0010367
:100D5000002B06D1124BDB68114A23F40043D36009
:100D600005E00F4BDB680E4A43F40043D3600B4BA6
:100D7000DB680A4A43F48073D360012000F01EFD53
:100D8000064BDB68054A23F48073D360012000F032
:100D900015FD00BF0837BD4680BD00BF00080140FB
:100DA000000C014080B582B000AF0346FB71664B7A
:100DB000DB68654A43F40063D360FB79DB09DBB28F
:100DC00003F00103002B06D1604BDB685F4A23F47C
:100DD0008053D36005E05D4BDB685C4A43F480538D
:100DE000D360FB799B09DBB203F00103002B06D132
:100DF000564BDB68554A23F40053D36005E0534B50
:100E0000DB68524A43F40053D360FB795B09DBB2E1
:100E100003F00103002B06D14C4BDB684B4A23F453
:100E20008043D36005E0494BDB68484A43F4804384
:100E3000D360FB791B09DBB203F00103002B06D161
:100E4000424BDB68414A23F40043D36005E03F4B4B
:100E5000DB683E4A43F40043D3603B4BDB683A4ACD
:100E600043F48073D360012000F0A8FC364BDB68AC
:100E7000354A23F48073D360012000F09FFCFB7996
:100E8000DB08DBB203F00103002B06D12F4BDB683C
:100E90002E4A23F48053D36005E02C4BDB682B4AA9
:100EA00043F48053D360FB799B08DBB203F001036A
:100EB000002B06D1254BDB68244A23F40053D36072
:100EC00005E0224BDB68214A43F40053D360FB79F1
:100ED0005B08DBB203F00103002B06D11B4BDB6880
:100EE0001A4A23F48043D36005E0184BDB68174AA5
:100EF00043F48043D360FB7903F00103002B06D158
:100F0000124BDB68114A23F40043D36005E00F4B1A
:100F1000DB680E4A43F40043D3600B4BDB680A4A9C
:100F200043F48073D360012000F048FC064BDB687B
:100F3000054A23F48073D360012000F03FFC00BF1A
:100F40000837BD4680BD00BF00080140000C0140CD
:100F500080B584B000AF78600023FB7309E0FB7BB1
:100F60007A6813441B781846FFF71CFFFB7B01339C
:100F7000FB73FB7B7A6813441B78002BEFD100BF17
:100F800000BF1037BD4680BD80B58AB000AF786025
:100F90007B68002B03D13020FFF704FFA3E07B68C0
:100FA000002B4DDD0023BB6107F11C0300221A60FA
:100FB0009A80002387F8273023E07A684C4B83FB24
:100FC00002139910D317C91A0B469B000B445B0000
:100FD000D11ACAB297F927303032D2B228333B4403
:100FE00003F8102C7B68424A82FB03129210DB1735
:100FF000D31A7B6097F92730DBB20133DBB287F875
:1010000027307B68002BD8DC97F82730013BDBB218
:1010100087F826300FE097F9263028333B4413F841
:10102000103C1846FFF7BEFE97F92630DBB2013BB5
:10103000DBB287F8263097F92630002BEBDA52E046
:101040007B685B427B600023FB6007F1100300229A
:101050001A609A80002387F8253023E07A68244BB1
:1010600083FB02139910D317C91A0B469B000B443C
:101070005B00D11ACAB297F925303032D2B2283388
:101080003B4403F81C2C7B68194A82FB0312921024
:10109000DB17D31A7B6097F92530DBB20133DBB263
:1010A00087F825307B68002BD8DC2D20FFF77AFEEF
:1010B00097F82530013BDBB287F824300FE097F931
:1010C000243028333B4413F81C3C1846FFF76AFED3
:1010D00097F92430DBB2013BDBB287F8243097F973
:1010E0002430002BEBDA00BF2837BD4680BD00BF9F
:1010F0006766666680B594B000AF0346FB71FB7906
:10110000002B1CD107F1380300221A605A609A6044
:10111000DA601A615A614FF08043BB630123FB63BD
:1011200044F62063BB640823FB6407F138031846C8
:1011300000F02AFD214B4FF080421A603AE0FB7923
:10114000012B1AD107F1200300221A605A609A601D
:10115000DA601A615A611A4B3B6201237B6244F6E2
:1011600020633B6308237B6307F12003184600F0EC
:101170000BFD124B124A1A601CE0FB79022B19D1AD
:1011800007F1080300221A605A609A60DA601A6157
:101190005A610C4BBB600123FB6044F62063BB61CA
:1011A0000823FB6107F10803184600F0EDFC034B30
:1011B000044A1A6000BF5037BD4680BD00000020C1
:1011C000000400400008004080B584B000AF034632
:1011D000FB71FB799BB21A4692001A4452001344E9
:1011E0009BB203F5FA73FB81124B1B68B3F1804F7E
:1011F00006D1FB8919464FF0804000F087FD14E0CE
:101200000C4B1B680C4A934205D1FB8919460A48CE
:1012100000F07CFD09E0074B1B68084A934204D1AB
:10122000FB891946054800F071FD00BF1037BD4627
:1012300080BD00BF00000020000400400008004006
:1012400090B597B000AF786007F1400300221A60B4
:101250005A609A60DA601A615A6108233B64254B30
:101260007B6507F14003184600F01AFB7B681B887A
:10127000002B0BD1204B07F12C040FCB84E80F007F
:1012800007F12C03184600F05DFB1EE07B681B880D
:10129000012B0BD1194B07F11C040FCB84E80F0075
:1012A00007F11C03184600F04DFB0EE07B681B881D
:1012B000022B0AD1124B07F10C040FCB84E80F006C
:1012C00007F10C03184600F03DFB7B681B89BB87C8
:1012D000042387F83E30012387F83F307B68DB68C2
:1012E00007F13C021146184600F09CF900BF5C373C
:1012F000BD4690BD0008004074210008842100080C
:10130000942100080000000080B586B000AF78602E
:101310000023FB824FF000024FF00003C7E90223D5
:101320007B68D8687B681B890022194600F022FA86
:10133000052000F02BFD7B68D8687B681B890122A3
:10134000194600F017FA0A2000F020FD7B68D868E3
:101350007B681B890022194600F00CFA0A2000F075
:1013600015FD7B681B88002B06D14FF0804000F0F4
:10137000DBFC0346FB8212E07B681B88012B05D156
:10138000194800F0D1FC0346FB8208E07B681B880B
:10139000022B04D1154800F0C7FC0346FB82FB8AF0
:1013A0001846FFF737F80EA3D3E90023FFF79CF8A0
:1013B00002460B46104619464FF000024FF080439C
:1013C000FFF7BCF902460B46C7E90223D7E902231F
:1013D000104619461837BD4680BD00BFAFF30080E8
:1013E000006F8104C58FA13F000400400008004049
:1013F00080B500AF054B1B689847054B5B69044AF5
:1014000043F00103536100BF80BD00BF38000020DE
:101410000004014080B500AF054B5B689847054B61
:101420005B69044A43F00203536100BF80BD00BF03
:10143000380000200004014080B500AF054B9B68D8
:101440009847054B5B69044A43F00403536100BFAE
:1014500080BD00BF380000200004014080B500AF0F
:10146000054BDB689847054B5B69044A43F008036A
:10147000536100BF80BD00BF380000200004014060
:1014800080B500AF054B1B699847054B5B69044A63
:1014900043F01003536100BF80BD00BF380000203F
:1014A0000004014080B500AF284B5B695B0903F085
:1014B0000103002B08D0264B5B699847234B5B69DF
:1014C000224A43F020035361204B5B699B0903F0E0
:1014D0000103002B08D01E4B9B6998471B4B5B698F
:1014E0001A4A43F040035361184B5B69DB0903F070
:1014F0000103002B08D0164BDB699847134B5B693F
:10150000124A43F080035361104B5B691B0A03F0DE
:101510000103002B08D00E4B1B6A98470B4B5B69ED
:101520000A4A43F480735361084B5B695B0A03F01A
:101530000103002B08D0064B5B6A9847034B5B699D
:10154000024A43F40073536100BF80BD00040140B0
:101550003800002080B500AF304B5B699B0A03F078
:101560000103002B08D02E4B9B6A98472B4B5B69DD
:101570002A4A43F480635361284B5B69DB0A03F01A
:101580000103002B08D0264BDB6A9847234B5B698D
:10159000224A43F400635361204B5B691B0B03F049
:1015A0000103002B08D01E4B1B6B98471B4B5B693C
:1015B0001A4A43F480535361184B5B695B0B03F089
:1015C0000103002B08D0164B5B6B9847134B5B69EC
:1015D000124A43F400535361104B5B699B0B03F0B9
:1015E0000103002B08D00E4B9B6B98470B4B5B699C
:1015F0000A4A43F480435361084B5B69DB0B03F0F9
:101600000103002B08D0064BDB6B9847034B5B694B
:10161000024A43F40043536100BF80BD000401400F
:101620003800002080B485B000AF786039600023B6
:10163000FB604F4B9B694E4A43F0040393614C4B54
:101640009B694B4A43F008039361494B9B69484AA5
:1016500043F0100393613B689B78052B0BD03B68EC
:101660009B78042B07D03B689B78062B03D03B6804
:101670009B78072B0AD13B689B78043B9B003A6818
:10168000D278134303F00F03FB6037E03B689B788D
:10169000002B03D03B689B78012B06D13B689B78DD
:1016A0009B0003F00F03FB6028E03B689B78022B54
:1016B0000CD10823FB607B68DB683A68128811460E
:1016C00001228A401A437B68DA6017E03B689B7806
:1016D000032B0DD10823FB607B68DB683A68128816
:1016E000114601228A40D2431A407B68DA6005E045
:1016F0003B689B78082B01D10423FB603B681B8867
:10170000072B17D87B681B683A68128892000F2154
:1017100001FA02F2D2431A407B681A607B681A68A9
:101720003B681B889B00F96801FA03F31A437B6846
:101730001A6018E07B685B683A681288083A920081
:101740000F2101FA02F2D2431A407B685A607B688B
:101750005A683B681B88083B9B00F96801FA03F351
:101760001A437B685A6000BF1437BD4680BC70477F
:101770000010024080B483B000AF78600B467B80DD
:1017800013467B707B78002B0AD17B68DB687A88F4
:10179000012101FA02F2D2431A407B68DA6008E0C4
:1017A0007B68DB687A88012101FA02F21A437B68C0
:1017B000DA6000BF0C37BD4680BC704780B485B08E
:1017C00000AF78600023FB6003E000BFFB680133DB
:1017D000FB607B684FF4487203FB02F2FB689A429D
:1017E000F3D800BF00BF1437BD4680BC704700006F
:1017F00080B582B000AF124B9B685B0803F0010319
:10180000DAB23B7962F300033B710D4B9B6803F046
:101810000103DAB23B7962F341033B71084B9B68E9
:101820001B0903F00103DAB23B7962F300033B7159
:10183000044B1B683879984700BF0837BD4680BD08
:10184000003001407400002080B582B000AF124B20
:101850009B685B0803F00103DAB23B7962F3000393
:101860003B710D4B9B6803F00103DAB23B7962F3E5
:1018700041033B71084B9B681B0903F00103DAB27B
:101880003B7962F300033B71044B5B6838799847FE
:1018900000BF0837BD4680BD0038004074000020FE
:1018A00080B483B000AF78607B685B69B3F1804F30
:1018B0000AD1204BDB691F4A43F00103D3611E4B61
:1018C0004FF080421A601CE07B685B691B4A9342C0
:1018D00009D1184BDB69174A43F00203D361164B59
:1018E000164A1A600DE07B685B69154A934208D17D
:1018F000104BDB690F4A43F00403D3610E4B104ACF
:101900001A607B685B694FF6FF72DA627B681A685F
:101910007B685B69013A9A627B685B691A687B68DD
:101920005B6942F001021A6000BF0C37BD4680BC03
:10193000704700BF001002408800002000040040F3
:101940000008004080B584B000AF78607B685B68B9
:10195000012B40F007817B681B68B3F1804F37D1C2
:10196000824B9B69814A43F0040393617F4BDB699F
:101970007E4A43F00103D3617B689B68012B0ED143
:101980007B681B68DA687B681B6842F00202DA60D9
:10199000774B1B68764A43F0805313600DE07B68F9
:1019A0001B68DA687B681B6822F00202DA60714B00
:1019B0001B68704A43F0805313600023BB810123EE
:1019C000BB7307F10C0319466B48FFF72BFE7EE053
:1019D0007B681B68694A93423DD1644B9B69634AAB
:1019E00043F004039361614B9B69604A43F0080331
:1019F00093615E4BDB695D4A43F00203D3617B6810
:101A00009B68012B0ED17B681B68DA687B681B68BA
:101A100042F00202DA60564B1B68554A43F000530D
:101A200013600DE07B681B68DA687B681B6822F036
:101A30000202DA604F4B1B684E4A43F000531360BA
:101A40000623BB810123BB7307F10C0319464A48E7
:101A5000FFF7E8FD3BE07B681B68494A934236D1BB
:101A6000424B9B69414A43F0080393613F4BDB695A
:101A70003E4A43F00403D3617B689B68012B0ED17F
:101A80007B681B68DA687B681B6842F00202DA60D8
:101A9000374B1B68364A43F0804313600DE07B6888
:101AA0001B68DA687B681B6822F00202DA60314B3F
:101AB0001B68304A43F0804313600623BB81012337
:101AC000BB7307F10C0319462E48FFF7ABFD7B688B
:101AD0001B689A697B681B6822F0FF029A617B6829
:101AE0001B689A697B681B6842F001029A617B68F7
:101AF0001B689A697B681B6842F030029A617B68B8
:101B00001B689A697B681B6822F0F0029A617B6807
:101B10001B689A697B681B6822F00C029A617B68DB
:101B20001B681A6A7B681B6822F002021A627B68D3
:101B30001B681A6A7B681B6842F001021A627B68A4
:101B4000DA687B681B68013A9A627B681B684FF60B
:101B5000FF72DA627B681B681A687B681B6842F058
:101B600001021A6000BF1037BD4680BD0010024060
:101B700000E100E080E100E00008014000040040D6
:101B800000080040000C014080B584B000AF7860D0
:101B90007B681B68B3F1804F18D1574B9B69564A3D
:101BA00043F004039361544BDB69534A43F0010350
:101BB000D3610123BB810623BB730323FB7307F1AE
:101BC0000C0319464D48FFF72DFD40E07B681B686C
:101BD0004B4A93421ED1484B9B69474A43F004034A
:101BE0009361454B9B69444A43F008039361424B20
:101BF000DB69414A43F00203D3610723BB8106231B
:101C0000BB730323FB7307F10C0319463B48FFF733
:101C100009FD1CE07B681B683A4A934217D1364B9A
:101C20009B69354A43F008039361334BDB69324AC1
:101C300043F00403D3610723BB810623BB73032353
:101C4000FB7307F10C0319462F48FFF7EBFC7B6889
:101C50005A697B681B68013A9A627B681A697B68DB
:101C60001B68013ADA627B681B6800225A627B6853
:101C70001B689A697B681B6822F47F429A617B68C3
:101C80001B689A697B681B6842F4C0429A617B6852
:101C90001B689A697B681B6842F400629A617B68E2
:101CA0001B689A697B681B6822F440729A617B68A2
:101CB0001B681A6A7B681B6842F010021A627B6814
:101CC0001B681A6A7B681B6822F020021A627B6814
:101CD0001B681A687B681B6842F080021A607B6888
:101CE0001B681A687B681B6842F001021A6000BF1B
:101CF0001037BD4680BD00BF001002400008014003
:101D00000004004000080040000C014080B483B093
:101D100000AF78600B467B807A887B689A6300BF4F
:101D20000C37BD4680BC704780B485B000AF78608A
:101D3000134B1B78DBB2002B1BD0124B1A68124BD3
:101D40001B689A4206D30F4B1A680F4B1B68D31AB5
:101D5000FB6009E07B68DA6A0B4B1B68D21A094BFF
:101D60001B6813440133FB60054B00221A70FB68AB
:101D700000E0002318461437BD4680BC704700BF02
:101D800084000020800000207C00002080B483B00C
:101D900000AF7860194B1B68B3F1804F0BD14FF047
:101DA000804300225A6200BF4FF080435B6A7A682A
:101DB0009A42F9D81CE0114B1B68114A934209D191
:101DC0000F4B00225A6200BF0D4B5B6A7A689A4241
:101DD000FAD80DE0094B1B680A4A934208D1094B17
:101DE00000225A6200BF074B5B6A7A689A42FAD8AF
:101DF00000BF0C37BD4680BC704700BF8800002084
:101E0000000400400008004080B584B000AF786056
:101E10000023FB8106E04FF47A70FFF7B7FFFB89E0
:101E20000133FB81FB897A689A42F4D800BF00BF76
:101E30001037BD4680BD000080B400AF4FF0804336
:101E40001B695B0803F00103002B3DD0204B1B787E
:101E5000012B15D11F4B1B78DBB2002B10D14FF09B
:101E600080435B6B1C4A1360194B00221A704FF0C1
:101E700080431B6A4FF0804243F0020313621BE071
:101E8000134B1B78002B17D1124B1B78DBB2002BA6
:101E900012D14FF080435B6B104A13600C4B012250
:101EA0001A700C4B01221A704FF080431B6A4FF0DE
:101EB000804223F0020313624FF080431B694FF00E
:101EC000804223F00203136100BFBD4680BC70470F
:101ED00004000020840000207C00002080000020FE
:101EE00080B400AF204B1B695B0803F00103002B9B
:101EF00035D01E4B1B78012B12D11D4B1B78DBB24A
:101F0000002B0DD1184B5B6B1A4A1360174B002244
:101F10001A70154B1B6A144A43F00203136218E04F
:101F2000124B1B78002B14D1114B1B78DBB2002B0A
:101F30000FD10D4B5B6B104A13600C4B01221A70D2
:101F40000B4B01221A70084B1B6A074A23F002034D
:101F50001362054B1B69044A23F00203136100BF9F
:101F6000BD4680BC704700BF000400400500002053
:101F7000840000207C0000208000002080B400AF9E
:101F8000204B1B695B0803F00103002B35D01E4B6F
:101F90001B78012B12D11D4B1B78DBB2002B0DD10E
:101FA000184B5B6B1A4A1360174B00221A70154BC3
:101FB0001B6A144A43F00203136218E0124B1B78A9
:101FC000002B14D1114B1B78DBB2002B0FD10D4B22
:101FD0005B6B104A13600C4B01221A700B4B0122F1
:101FE0001A70084B1B6A074A23F002031362054B61
:101FF0001B69044A23F00203136100BFBD4680BC85
:10200000704700BF00080040060000208400002048
:102010007C0000208000002080B500AF024B1B68D0
:10202000984700BF80BD00BF8C00002080B500AF86
:10203000024B5B68984700BF80BD00BF8C0000204A
:1020400080B500AF024B9B68984700BF80BD00BFC2
:102050008C00002080B500AFFEF778FCFEF7D8FCBE
:10206000FCE700000D488546AFF300800C480D49A1
:102070000D4A002302E0D458C4500433C4188C42E3
:10208000F9D30A4A0A4C002301E013600432A24249
:10209000FBD300F011F8FFF7DDFFFEE70050002052
:1020A0000000002008000020AC21000808000020EB
:1020B00098000020FEE7000070B500260C4D0D4C86
:1020C000641BA410A64209D100F01AF800260A4D9C
:1020D0000A4C641BA410A64205D170BD55F8043B00
:1020E00098470136EEE755F8043B98470136F2E78A
:1020F000A4210008A4210008A4210008A8210008A8
:10210000F8B500BFF8BC08BC9E467047F8B500BFE4
:08211000F8BC08BC9E467047B4
:1021180053797374656D205265616479000000001D
:1021280044697374616E63653A200000636D000052
:10213800446F6F72204F70656E656400446F6F72F4
:10214800204F70656E000000446F6F7220436C6F03
:10215800736564000C0004010D0004010E00040105
:102168000F0004010B0004010800040100000040F6
:102178000100000001000000080000000004004009
:1021880001000000010000000800000000080040F5
:0C21980001000000010000000800000031
:0421A40055010008D9
:0421A80031010008F9
:0821AC000000004001010100E8
:04000005080020656A
:00000001FF
